:1000000013C02DC02CC02BC02AC029C028C027C0B7
:1000100026C025C024C023C022C021C020C01FC0CC
:100020001EC01DC01CC01CC011241FBECFEFD2E0DB
:10003000DEBFCDBF11E0A0E0B1E0EEEEF0E002C027
:1000400005900D92AC30B107D9F721E0ACE0B1E0FA
:1000500001C01D92AD30B207E1F736D046C0D0CF17
:100060001F920F920FB60F9211248F93EF93FF936D
:100070008091B900883AB1F0883BA1F0803869F0EE
:100080008091BC0080688093BC00FF91EF918F91BC
:100090000F900FBE0F901F9018958091BB0080931A
:1000A0000C01EECFE0910C01E85F80E0E93020F434
:1000B000F0E0EF5FFE4F80818093BB0080910C01E8
:1000C0008F5F80930C01DCCF80E388B984EA809352
:1000D000BA00789485E48093BC0083B7897F83BF9E
:0E00E00083B7816083BF8895FECFF894FFCF71
:0C00EE00F8626F6F7440534443005200EE
:00000001FF
